:1000000020060020710100006F0100006F01000058
:1000100000000000000000000000000000000000E0
:100020000000000000000000000000006F01000060
:1000300000000000000000006F0100006F010000E0
:100040006F0100006F0100006F0100006F010000F0
:100050006F0100006F0100006F0100006F010000E0
:100060006F0100006F0100006F0100006F010000D0
:100070006F0100006F0100006F0100006F010000C0
:100080006F0100006F0100006F0100006F010000B0
:100090006F0100006F0100006F0100006F010000A0
:1000A0006F0100006F0100006F0100006F01000090
:1000B0006F0100006F010000000000000000000060
:1000C00000000000000000006F0100006F01000050
:1000D0006F0100006F0100006F0100006F01000060
:1000E0006F0100006F0100006F0100006F01000050
:1000F0006F01000010B540F20004C2F20004237842
:1001000063B940F20003C0F200032BB140F2486033
:10011000C0F2000000E000BF0123237010BDC04604
:1001200040F20003C0F2000310B54BB140F20401ED
:1001300040F24860C2F20001C0F2000000E000BFDF
:1001400040F24860C0F20000036803B910BD40F2FD
:100150000003C0F20003002BF8D09847F6E7C04632
:1001600010B540F23523C0F20003984710BDFEE7FA
:1001700010B540F24862C0F2000240F20003C2F241
:1001800000039A4220D01A0040F20003C2F200039A
:100190009A4219D240F20003C2F200030333244A08
:1001A0009B1A9B0801339B00002240F20001C2F21F
:1001B0000001511840F24860C0F2000010180068B9
:1001C000086004329A42F0D140F20002C2F200020A
:1001D00040F22003C2F200039A4213D240F200021E
:1001E000C2F20002D34340F22001C2F200018C4669
:1001F000634403218B43043394466344002102C2C9
:100200009342FCD140F20003C0F200037F229343EB
:100210004EF60052CEF20002936040F2D953C0F283
:100220000003984740F27553C0F200039847FEE779
:1002300004000020F8B540F26D43C0F20003984777
:10024000C022D20501215161916043F20003C4F242
:1002500000030120C4F200009862C02000069862EA
:1002600040255C5D8C435C55022454619460C4F26B
:1002700000049C62986201355C5D8C435C550426E9
:10028000566196600424C4F200049C6298620135B1
:100290005C5D8C435C55082454619460C4F2000496
:1002A0009C62986201355C5D8C435C5510245461FE
:1002B0009460C4F200049C62986201355C5D8C43DA
:1002C0005C5520245460C4F202049C620024CCF2E9
:1002D00002049C6245241D5DB5431D551D5D8D4383
:1002E0001D55BB3454619460C4F200049C62986252
:1002F00048255C5D8C435C5544F200045461946075
:10030000C4F200049C62986206355C5D8C435C55C7
:1003100048F2000454619460C4F200049C62986244
:100320004F24185D8843185580204002506190602A
:100330008020C00598624E3CCCF200049C620235DD
:100340005C5D8C435C558024A40254619460986287
:100350000224CCF200049C6201355C5D8C435C5548
:100360008024E4025461946098620424CCF2000476
:100370009C6201355C5D8C435C5580242403546190
:10038000946098620824CCF200049C6201355C5DA4
:100390008C435C558024E40354619460986240244B
:1003A000CCF200049C6203355C5D8C435C55802577
:1003B0002D0455600024C4F202049C628024CCF217
:1003C00002049C62556057241E5D04273E431E555F
:1003D00095611D5D8D431D5550619060986244F29A
:1003E0000004CCF200049C625E255C5D8C435C558D
:1003F0008024240654619460986248F20002CCF292
:1004000000029A625F201A5C8A431A54F8BDEFF327
:100410001083036072B6BFF35F8F7047BFF35F8FC7
:10042000036883F31088704710B540F21C03C2F2D2
:1004300000031C6840F24F43C0F2000398470100DC
:10044000200040F26743C0F20003984710BD03004C
:1004500040F29010584302300323B0FBF3F08300C6
:100460001818400070470139FDD8704710B544F2A4
:100470000003C4F200135A685A60002040F23B5354
:10048000C0F20003984740F2F343C0F200039847DC
:1004900040F20B53C0F20003984740F2E543C0F22C
:1004A0000003984740F23953C0F2000398471F20D9
:1004B00040F2BD43C0F20003984710BDC30710D5FA
:1004C00041F60043C4F2000340F20512C0F20102FB
:1004D0001A6241F60042C4F200027D2153681942BB
:1004E000FCD1704740F60003C4F2000301221A71E8
:1004F000704741F20043C4F20003DA6941F600712B
:100500000A40DA6100221A74704741F20003C4F213
:10051000000302221A7641F20002C4F20002102106
:1005200013691942FCD041F20003C4F200031A7EA1
:1005300080210A431A767047704740F20043C4F2A4
:1005400000039B7803221340984212D040F20042ED
:10055000C4F20002FF239371937803218B43084078
:100560001843907040F20042C4F200029379002BCD
:10057000FCD07047F0B583B040F26113C0F20003C5
:10058000984740F22946C0F20006C025ED05012734
:1005900002E08023DB036B616420B047EF6101A8B8
:1005A00040F20F43C0F2000398472C6843F2000367
:1005B000C4F200031A6A2B6953401C40544001A83E
:1005C00040F21D43C0F2000398472302E1D5802387
:1005D000DB03AB61E0E7000070B500250E4B0F4C6C
:1005E000E41AA410A54209D1002500F01DF80C4C16
:1005F0000C4BE41AA410A54207D170BD064AAB000B
:100600009B181B6898470135ECE7064AAB009B181E
:100610001B6898470135EEE73406000034060000F9
:100620003806000034060000F8B5C046F8BC08BC27
:100630009E46704721010000F8B5C046F8BC08BCD2
:080640009E467047F500000022
:00000001FF
